:090000000203697E007F0A01F58C
:10000B008160438901758CFC758A67D2A9D2AFD206
:02001B008C2235
:1000230081EEE709F608DFFA8046E709F208DFFA0E
:10003300803E88828C83E709F0A3DFFA8032E309EC
:10004300F608DFFA8078E309F208DFFA8070888225
:100053008C83E309F0A3DFFA806489828A83E0A3B7
:10006300F608DFFA805889828A83E0A3F208DFFA70
:10007300804C80D280FA80C680D4806980F280333D
:10008300801080A680EA809A80A880DA80E280CA05
:10009300803389828A83ECFAE493A3C8C582C8CCEF
:1000A300C583CCF0A3C8C582C8CCC583CCDFE9DE49
:1000B300E7800D89828A83E493A3F608DFF9ECFADB
:1000C300A9F0EDFB2289828A83ECFAE0A3C8C582FA
:1000D300C8CCC583CCF0A3C8C582C8CCC583CCDF4C
:1000E300EADEE880DB89828A83E493A3F208DFF9FE
:1000F30080CC88F0EF60010E4E60C388F0ED2402DF
:10010300B4040050B9F582EB2402B4040050AF23C9
:100113002345822390007573BB010689828A83E09D
:10012300225002E722BBFE02E32289828A83E49300
:1001330022BB010CE58229F582E5833AF583E022AF
:100143005006E92582F8E622BBFE06E92582F8E29D
:1001530022E58229F582E5833AF583E49322BB0104
:100163000689828A83F0225002F722BBFE01F32222
:10017300F8BB010DE58229F582E5833AF583E8F0C2
:10018300225006E92582C8F622BBFE05E92582C86E
:10019300F222BB010A89828A83E0F5F0A3E02250B0
:1001A3000687F009E71922BBFE07E3F5F009E31917
:1001B3002289828A83E493F5F074019322BB0110B0
:1001C300E58229F582E5833AF583E0F5F0A3E022A1
:1001D3005009E92582F886F008E622BBFE0AE925E4
:1001E30082F8E2F5F008E222E5832AF583E993F544
:1001F300F0A3E99322BB010A89828A83F0E5F0A385
:10020300F0225006F709A7F01922BBFE06F3E5F02A
:1002130009F31922BB011A89828A83D0F0D0E0F84E
:10022300D0E0F9D0E0FAD0E0FBE8C0E0C0F0020291
:10023300955016E9F8D083D082D0E0F9D0E0FAD017
:10024300E0FBC082C08302028CBBFE16E9F8D083B8
:10025300D082D0E0F9D0E0FAD0E0FBC082C08302C4
:10026300029E22C5F0F8A3E028F0C5F0F8E5821558
:100273008270021583E038F022FAE6FB0808E6F9FB
:1002830025F0F618E6CA3AF622EBF608EAF608E98C
:10029300F622EBF0A3EAF0A3E9F022EBF208EAF28C
:1002A30008E9F222D083D082F8E4937012740193A8
:1002B300700DA3A393F8740193F5828883E4737498
:1002C30002936860EFA3A3A380DF8E0B8F0C7E00E5
:1002D3007F708F828E83E0FCA3E0FD4C7003FEFFF2
:1002E300228D828C83A3A3E0FAA3E0FBC3950CEADF
:1002F300950B5008CEECCECFEDCF80D6C3EB950C4B
:10030300F50EEA950BF50DC3E50E9410E50D94007B
:1003130050198D828C83E0FBA3E08F828E83CBF018
:10032300A3EBF0ED2404FFE43CFE2274FC250EF560
:100333000E74FF350DF50D8D828C83A3A3F0A3E519
:100343000EF0ED2404FFE43CFEEF250EFFEE350D29
:10035300FE8F82F583A3A3E50BF0A3E50CF0EF2456
:1003630004FFE43EFE22787FE4F6D8FD7581100297
:1003730003B0020479E493A3F8E493A34003F68063
:1003830001F208DFF48029E493A3F85407240CC88E
:10039300C333C4540F4420C8834004F45680014639
:1003A300F6DFE4800B01020408102040809003F57F
:1003B300E47E019360BCA3FF543F30E509541FFE64
:1003C300E493A360010ECF54C025E060A840B8E4D5
:1003D30093A3FAE493A3F8E493A3C8C582C8CAC558
:1003E30083CAF0A3C8C582C8CAC583CADFE9DEE7EA
:1003F30080BE54005C00000000000000000000000C
:1004030000000000000000000041005B0000480005
:100413007000000000000000000001000000020066
:100423000000010E1000020E1000000001009600F3
:1004330002009600000001009600020096000000F2
:1004430001000000020000000000010BB801F400ED
:10045300020BB801F40000000000000000C0E075CA
:100463008CFC758A67E510450F6008E51015107060
:1004730002150FD0E032E4900014F0A3F0A3F0785B
:10048300177C007D017BFF7A04791CFE7F0811F540
:10049300781F7C007D017BFF7A047924110378297E
:1004A3007C007D017BFF7A04792E110378337C0075
:1004B3007D017BFF7A0479381103783D7C007D014F
:1004C3007BFF7A047942110378477C007D017BFF2F
:1004D3007A04794C7E007F1411F5110D7F1E7E0086
:1004E300B1207508018A09890A80F1C0E0C083C080
:1004F30082C0D075D000C007309816C29890005BB8
:10050300E0FF04F0745C2FF582E43400F583E59991
:10051300F0D007D0D0D082D083D0E032FE51CDAA24
:0405230006A90722FC
:00000001FF
