:08000000020856900035E1BD35
:10000B00A10F900035F1BD90003BE0FF04F08F8213
:04001B0075830022C7
:10002300A140540041000000000000000000000057
:100033000000000000000000004100400000546880
:100043006973206973206E6F74206120636F6D7014
:100053006C65746520726573706F6E736520706173
:10006300636B616765210D0A00E794B5E58E8BE646
:100073008AA5E994990D0A00E8A792E5BAA6E68A4B
:10008300A5E994990D0A00E8BF87E783ADE68AA541
:10009300E994990D0A00E88C83E59BB4E68AA5E907
:1000A30094990D0A00E6A0A1E9AA8CE68AA5E99431
:1000B300990D0A00E5A0B5E8BDACE68AA5E99499D7
:1000C3000D0A00E8A7A3E69E90E68AA5E994990D98
:1000D3000A00536574207375636365737366756C87
:1000E300210D0A00000000000000000000000000D5
:1000F30000000000000000000000000000000000FD
:1001030090003DF1C6E4FFFEEEC39D501190003D0B
:10011300F1BD8E82758300D1C42FFF0E80EAEFF408
:10012300FF2290002FEDF0AE03E490003BF0A3F02C
:1001330011035194518D518D5178ED12081E015DBB
:1001430001016802018B0302200602201002201520
:1001530002206401C6830000023B110D7402F10307
:1001630090002F8012110D7404F103517E51781108
:1001730012EEF103900031E0FF90003BE0FE04F04B
:100183008E82758300EF4137900031E02403FF1125
:100193000351835178517E5178AF06516FE490003B
:1001A3003CF0900031E0FF90003CE0FEC39F400232
:1001B300413E900032F1BD8E82516490003CE004D8
:1001C300F080DF900032B19004FF900031E0FEEF49
:1001D3008EF0A42404516990002FE0FF516FE49046
:1001E300003CF0900032B178900031E0FD8FF0B127
:1001F300A57C00EF2DFFEC3EFE90003CE0C39FEE9C
:100203006480F87480985033900032F1BD90003CC4
:10021300E0F582516490003CE004F080C6110D7457
:1002230004F10390002FE0FF516F111274DFF1030B
:10023300111274DFF10380037F072211039194905D
:10024300003BE024FEFD3103110390003BE0FEF58B
:10025300825178EE04FF900038F1BDEFD1F17F00B9
:1002630022758300D1C4FF900035F1BD90003BE0BF
:10027300FE04F08E82758300EFE10390002FE0FF10
:1002830090003BE0FD04F08D822275830074FFF142
:100293000390003BE0FC04F08C8222AE03AB05C06C
:1002A30003900031EEF0900025B1AE900028B19E8E
:1002B30090002BB197D0037D0331257F0022911845
:1002C3007B017D23519E7F0022E4900014F0A3F074
:1002D300A3F091FF7138E4FD715971C871327D0249
:1002E3007F0151C1715D914971327D01715971C8AD
:1002F3007FE87E03711A714A7B017A0079149000BA
:100303001D71437D647C007F0171D2715D916B7FB0
:10031300B87E0B711A80BDEF25E0FFEE33900055D8
:10032300F0A3EFF0900055E07002A3E070F6227F97
:10033300E87E03711A714A7B017A00791490001CDC
:10034300F1C67A00790022438920759840913FC213
:10035300ACD2AFD28E227F0171BD7B017A007900CE
:10036300900014E0FD7C00718A717B7F0A7E00712E
:100373001A7B017A00794122438920759850913F75
:10038300D2ACD2AFD28E22900017F1C690001AECF5
:10039300F0A3EDF0E4FDFCD390001BE09D90001A68
:1003A300E09C4015900017F1BD8D828C83D1C4FF72
:1003B300918C0DBD00010C80DE2291187B017D30F4
:1003C300519E7F0022917591536001227F002290FC
:1003D3000017B18178207C007D017BFF7A0079F9D9
:1003E3009186900018E0FCA3E0900020F0ECFF332E
:1003F30095E0EFA3F0900017E0FF7B017A007920EE
:10040300918190001AB17190001D91387B027D3368
:10041300519E7F0022900018EDF0A3F1C67B017A74
:10042300007918900025F1C6900019F1BD900028BD
:10043300F1C690001CF1BD90002BE1C67587807555
:100443008DFF758BFF22917591536001227F0022EE
:1004530090001AF1C60B7A00791A900020F1C69029
:100463000017F1BD919CEF22917591536001227F9A
:100473000022900017F1C67B007A007900229000D9
:1004830025E1C67E007F02C1858F993099FDC2990F
:1004930022E92402F9E43AFA2290001DF1C6900001
:1004A30003D1C4FC900004D1C4900023F09194ECD8
:1004B30004FD310390001DB18CB4FF13B192B4FF5E
:1004C3000EECF582758300A3A3A3D1C46F60037FF1
:1004D3008022900023E0FF600122ECD394024019B4
:1004E30090001DF1BDE92405F9E43AFAC003C00206
:1004F300C001900020F1BDF1CF7F00224389017537
:100503008CFC758A67D2A9D2AFD28C22C0E0C0F02E
:10051300C083C082C0D075D008758CFC758A679083
:100523000055E07002A3E0600990005574FFF5F0F8
:10053300F125D0D0D082D083D0F0D0E032C0E0C05B
:1005430083C082C0D075D000C007309816C298907F
:100553000040E0FF04F074412FF582E43400F5839A
:10056300E599F0D007D0D0D082D083D0E032F1BD6E
:10057300900028E1C6F1BD900001D1C4FF22EFF045
:10058300A3ECF0A3EDF0A3E1C6F1BDC1ABF1BD90C7
:100593000001C1C4F1BD900038E1C6F1BD90003542
:1005A300E1C6A42402FFE435F0FE22F1BD9000323F
:1005B300E1C6E709F608DFFA8046E709F208DFFA41
:1005C300803E88828C83E709F0A3DFFA8032E30957
:1005D300F608DFFA8078E309F208DFFA8070888290
:1005E3008C83E309F0A3DFFA806489828A83E0A322
:1005F300F608DFFA805889828A83E0A3F208DFFADB
:10060300804C80D280FA80C680D4806980F28033A7
:10061300801080A680EA809A80A880DA80E280CA6F
:10062300803389828A83ECFAE493A3C8C582C8CC59
:10063300C583CCF0A3C8C582C8CCC583CCDFE9DEB3
:10064300E7800D89828A83E493A3F608DFF9ECFA45
:10065300A9F0EDFB2289828A83ECFAE0A3C8C58264
:10066300C8CCC583CCF0A3C8C582C8CCC583CCDFB6
:10067300EADEE880DB89828A83E493A3F208DFF968
:1006830080CC88F0EF60010E4E60C388F0ED240249
:10069300B4040050B9F582EB2402B4040050AF2334
:1006A3002345822390060573BB010689828A83E072
:1006B300225002E722BBFE02E32289828A83E4936B
:1006C30022BB010CE58229F582E5833AF583E0221A
:1006D3005006E92582F8E622BBFE06E92582F8E208
:1006E30022E58229F582E5833AF583E49322BB016F
:1006F3000689828A83F0225002F722BBFE01F3228D
:10070300F8BB010DE58229F582E5833AF583E8F02C
:10071300225006E92582C8F622BBFE05E92582C8D8
:10072300F222C5F0F8A3E028F0C5F0F8E5821582BF
:1007330070021583E038F022BB010A89828A83E0C4
:10074300F5F0A3E022500687F009E71922BBFE0764
:10075300E3F5F009E3192289828A83E493F5F074BF
:10076300019322BB0110E58229F582E5833AF583E3
:10077300E0F5F0A3E0225009E92582F886F008E6C7
:1007830022BBFE0AE92582F8E2F5F008E222E583BE
:100793002AF583E993F5F0A3E99322BB010A898241
:1007A3008A83F0E5F0A3F0225006F709A7F0192297
:1007B300BBFE06F3E5F009F31922E0FBA3E0FAA37D
:1007C300E0F922EBF0A3EAF0A3E9F022BB011A89D6
:1007D300828A83D0F0D0E0F8D0E0F9D0E0FAD0E01C
:1007E300FBE8C0E0C0F00207C65016E9F8D083D09A
:1007F30082D0E0F9D0E0FAD0E0FBC082C0830208E7
:1008030044BBFE16E9F8D083D082D0E0F9D0E0FAF9
:10081300D0E0FBC082C08302084D22D083D082F88F
:10082300E4937012740193700DA3A393F87401936E
:10083300F5828883E4737402936860EFA3A3A380B3
:10084300DFEBF608EAF608E9F622EBF208EAF2082B
:10085300E9F222787FE4F6D8FD75810F02089D0244
:1008630002CCE493A3F8E493A34003F68001F208D7
:10087300DFF48029E493A3F85407240CC8C333C4DA
:10088300540F4420C8834004F456800146F6DFE445
:10089300800B0102040810204080900025E47E01B3
:1008A3009360BCA3FF543F30E509541FFEE493A3B8
:1008B30060010ECF54C025E060A840B8E493A3FACA
:1008C300E493A3F8E493A3C8C582C8CAC583CAF056
:0F08D300A3C8C582C8CAC583CADFE9DEE780BEF5
:00000001FF
