:020000040800F2
:10000000D004002001010008BB10000813100008F4
:10001000B91000086D010008C513000800000000B9
:10002000000000000000000000000000BF100008F9
:100030006F01000800000000BD100008C11000089A
:100040001B0100081B0100081B0100081B01000820
:100050001B0100081B0100081B0100081B01000810
:100060001B0100081B0100081B0100081B01000800
:100070001B0100081B0100081B0100081B010008F0
:100080001B0100081B0100081B0100081B010008E0
:100090001B0100081B0100081B0100081B010008D0
:1000A0001B0100081B0100081B0100081B010008C0
:1000B0001B0100081B0100081B0100081B010008B0
:1000C0001B0100081B0100081B0100081B010008A0
:1000D0001B010008AD130008B91300081B0100083C
:1000E0001B0100081B0100081B010008DFF80CD0F1
:1000F00000F02AF8004800476D140008D0040020E2
:100100000648804706480047FEE7FEE7FEE7FEE7B1
:10011000FEE7FEE7FEE7FEE7FEE7FEE72311000845
:10012000ED000008D2B201E000F8012B491EFBD21D
:1001300070470022F6E710B513460A4604461946F2
:10014000FFF7F0FF204610BD064C074D06E0E068C3
:1001500040F0010394E8070098471034AC42F6D30E
:10016000FFF7C8FF141B0008341B0008FEE77047A8
:1001700072B6FEE710B590F821100022022905D0D2
:100180000421816380F82020012010BD01680B68E4
:1001900023F00E030B6001680B6823F001030B6072
:1001A00090F84030C46B012101FA03F3636080F8DA
:1001B000211080F82020104610BD000010B590F8E6
:1001C00021100024022903D00421816301243DE091
:1001D00001680A6822F00E020A6001680A6822F0CB
:1001E00001020A601A4A0168914201D1012121E00D
:1001F000174A1432914201D110211BE0144A2832CF
:10020000914201D1891515E0114A3C32914201D148
:1002100089140FE00E4A5032914202D14FF48031DE
:1002200008E00B4A6432914202D14FF4801101E0A0
:100230004FF08071064A083A5160012180F8211080
:10024000002180F82010416B01B18847204610BD85
:100250000800024070B5044600F0FEF80546601C38
:1002600002D004480078044400F0F6F8401BA04295
:10027000FAD370BD040000202DE9F84FDFF8B891E3
:100280000024A9F1040B23460F2709F1040AABF15E
:10029000040EC9E00125A5402A40AA427DD1674E3F
:1002A000D1F804C0ACEB0608B44532D014DCBCF184
:1002B000030F3AD009DCBCF1000F2AD0BCF1010FCA
:1002C0001CD0BCF1020F31D11DE0BCF1110F17D0D1
:1002D000BCF1120F2AD119E0B8F5881F19D006DC3D
:1002E000B8F5803F15D0B8F5801F1FD111E0B8F5E3
:1002F000001F0ED0B8F5041F18D10AE0CB6815E036
:10030000CB681B1D12E0CB6808330FE0CB680C33C1
:100310000CE08B682BB1012B4FF0080303D0456133
:1003200004E0042302E0056100E00023FF2A01D875
:10033000064601E000F104064FEA840501D9A5F163
:100340002005D6F8008007FA05FC28EA0C0803FA15
:1003500005F548EA0508C6F800804D68ED0062D54D
:10036000374DAE6946F00106AE61AD6924F0030673
:1003700005F001050095334D06EB050CDCF808503F
:10038000A607360F07FA06F825EA0805DFF8B88051
:10039000404503D14FF0000817E044E0DFF8AC809F
:1003A000404502D14FF001080FE0DFF8A48040453E
:1003B00002D14FF0020808E0DFF89880404502D1F2
:1003C0004FF0030801E04FF0040808FA06F848EA85
:1003D0000508CCF808804D68D9F80060ED024D465C
:1003E00001D5164300E096432E604D68DAF80060B0
:1003F000AD02554601D5164300E096432E604D6888
:10040000DBF80060AD035D4601D5164300E096437E
:100410002E604D68DEF80060ED03754601D5164389
:1004200000E096432E60641C0D682A46E5407FF488
:1004300031AFBDE8F88F0000080401400000111042
:10044000001002400000014000080140000C014083
:10045000001001400014014001488068704700000E
:100460000400002090F84010012912D0012100F86A
:10047000401F2421417050F8401CCA6822F00C0231
:1004800042F00402CA602021417000210170084638
:1004900070470220704790F84010012912D00121C6
:1004A00000F8401F2421417050F8401CCA6822F017
:1004B0000C0242F00802CA60202141700021017044
:1004C000084670470220704770B5040004D094F8C5
:1004D0004100002510B106E0012070BD84F84050B5
:1004E000204600F0E3FC242084F841002068C16825
:1004F00021F40051C160204600F0A4FE206801698B
:1005000021F4904101612068416921F0220141619B
:100510002068416941F0080141612068C16841F4E7
:100520000051C1606564202084F8410084F84200D5
:100530006563002070BD00000248816802781144A4
:100540008160704704000020074810B5016841F041
:1005500010010160032000F075F80F2000F006F88C
:1005600000F024F8002010BD0020024070B50D4DB1
:1005700004464FF47A712878B1FBF0F00A49096813
:10058000B1FBF0F000F0DCFA48B9102C07D20022E1
:100590002146501E00F036F800206C6070BD01202E
:1005A00070BD000004000020100000200C4808B5B9
:1005B000816941F001018161816901F001010091CE
:1005C000C16941F08051C161C06900F08050009064
:1005D0000448416821F0E06141F00071416008BDCC
:1005E0000010024000000140002809DB00F01F025B
:1005F000012191404009800000F1E020C0F8001185
:1006000070470000F0B40E4B1B680C46C3F3022386
:10061000C3F10705042D00D90425191D072901D2AE
:10062000002300E0DB1E012606FA05F1491E2140E9
:1006300099409E40761E16403143F0BC00F0CCBE7F
:100640000CED00E0064900F0070208684FF6FF03D2
:10065000184040EA0220034A104308607047000037
:100660000CED00E00000FA052DE9F0470F4605000B
:1006700061D0434E306800F00700B84209D23068BC
:1006800020F0070038433060306800F00700B842BF
:1006900051D128683B4C810712D5400703D56068CB
:1006A00040F4E06060602878000703D5606840F49B
:1006B000605060606068A96820F0F00008436060E6
:1006C0002878C00728D06868012810D0216802283F
:1006D00010D0890700292EDA616821F00301014357
:1006E0006160FFF7B9FE804641F288390DE021686C
:1006F0008903EFE78901EDE7FFF7AEFEA0EB080104
:10070000494502D90320BDE8F0876068696800F0B8
:100710000C00B0EB810FEFD1306800F00700B84259
:100720000BD9306820F0070038433060306800F0A3
:100730000700B84201D00120E5E72878400705D539
:100740006068E96820F4E06008436060287800078A
:1007500006D56068296920F4605040EAC1006060F5
:1007600000F038F86168084AC1F30311515CC840D1
:100770000649086006480068FFF7F8FE0020C2E757
:100780000020024000100240FA1A00081000002069
:10079000080000200448054900684968044AC1F37C
:1007A0000221515CC8407047100000200010024038
:1007B0000A1B00080448054900684968044AC1F357
:1007C000C221515CC8407047100000200010024058
:1007D0000A1B00080E4A51680E4801F00C03042B56
:1007E00011D0082B0FD10C48C1F38343C903C05C5F
:1007F0000AD55168084AC1F34041921E515C054A2E
:100800005043B0FBF1F07047044948437047000083
:100810000010024000127A00EA1A000800093D00A8
:100820002DE9F84F040070D02078C04DC00749D0A2
:100830006868C0F38100012807D06868C0F38100B0
:10084000022809D16868C00306D52868800339D515
:1008500060680028E7D035E06068B0F5803F0BD0D5
:1008600010B1B0F5A02F11D0286820F48030286096
:10087000286820F4802002E0286840F48030286056
:10088000606890B1FFF7E8FD06460AE0286840F48A
:1008900080202860F0E700BFFFF7DEFD801B6428A2
:1008A00073D828688003F7D50CE0FFF7D5FD06461E
:1008B00005E000BFFFF7D0FD801B6428F0D8286852
:1008C0008003F7D420789A4E80074FF001094FF04B
:1008D000000839D5686810F00C0F07D06868C0F3BD
:1008E0008100022809D16868C00306D428688007FF
:1008F00014D52069012808D110E02069B0B1C6F8EC
:100900000090FFF7A9FD074605E00AE1FFF7A4FD07
:10091000C01B0228C4D828688007F7D528686169F9
:1009200020F0F80040EAC10028600DE0C6F8008021
:10093000FFF792FD074604E0FFF78EFDC01B02287B
:1009400023D828688007F7D4207800072CD5794869
:10095000A169D9B1C0F80090FFF77EFD074604E019
:10096000FFF77AFDC01B02280FD8686A8007F7D509
:1009700071484FF4FA510068B0FBF1F0009000BFED
:100980000098411E0091FAD20EE080E0C0F800808D
:10099000FFF762FD074604E0FFF75EFDC01B02287B
:1009A00075D8686A8007F7D42078400760D5E86971
:1009B0000027C00008D4E86940F08050E861E86989
:1009C000012700F0805000905C480168C90513D4ED
:1009D0000168834641F480710160FFF73DFD824666
:1009E00006E000BFFFF738FDA0EB0A0064284ED8F0
:1009F000DBF80000C005F5D5E06801280AD008B191
:100A0000052813D0286A20F001002862286A20F007
:100A1000040002E0286A40F001002862E06841F228
:100A2000883B98B1FFF718FD82460BE0286A40F03A
:100A300004002862EEE700BFFFF70EFDA0EB0A01FD
:100A400059455AD8286A8007F6D50CE0FFF704FD0F
:100A5000824605E0FFF700FDA0EB0A0159454CD89E
:100A6000286A8007F6D41FB1E86920F08050E86159
:100A7000E06988B36968C1F38101022944D0022882
:100A8000C6F8608004D0FFF7E7FC044638E034E0A5
:100A9000FFF7E2FC074604E0FFF7DEFCC01B02287C
:100AA0002BD828688001F7D4206AB0F5803F05D1A3
:100AB0006868A16820F4003008436860D4E9080140
:100AC0000843696821F4741108436860C6F86090AF
:100AD000FFF7C2FC044606E025E000BFFFF7BCFCC0
:100AE000001B022809D828688001F7D51BE000BF49
:100AF000FFF7B2FC001B022802D90320BDE8F88FE3
:100B000028688001F4D40EE00128F7D06868226AD2
:100B100000F48031914204D1616A00F4701088427F
:100B200001D00120EAE70020E8E7000000100240C1
:100B30000000424280044242100000200070004049
:100B400010B5401EB0F1807F01D3012010BD4FF0E1
:100B5000E02460610F21601700F03EFC0020A061DE
:100B600007202061002010BD18B5034690F8420010
:100B7000202801D0022018BD61B15AB101201863AC
:100B800000205863184600F0B9FB0028F3D1196B18
:100B9000012901D0012018BD19680A68496800912F
:100BA00019680C3151E8002F42F0100241E800248E
:100BB000002CF5D118BD000000680449884204D11A
:100BC000322203490348FFF7CFBF70470038014086
:100BD0002C0000204000002070470000F8B501689C
:100BE00004460868CA684B6910F00F0F4FF0000503
:100BF00059D003F0010602F49077374365D0C1075E
:100C000005D0D10503D5616C41F001016164410754
:100C100005D5D90703D0616C41F0020161648107F9
:100C200005D5D90703D0616C41F004016164010767
:100C300007D502F02001314303D0616C41F0080177
:100C40006164616C00293AD0800604D5900602D513
:100C5000204600F096FA20684069616CC0F380106D
:100C6000090700D460B3204600F064FA20684069A8
:100C7000400621D52068143050E8001F21F04001C3
:100C800040E80012002AF5D1E06BA8B16D4941633C
:100C9000E06BFFF793FA002811D0E06B416B01B0D5
:100CA000BDE8F040084783060FD593060DD52046D2
:100CB000BDE8F84000F065BA2046FFF78DFFF8BDAB
:100CC0002046FFF789FF6564F8BD266B2023012EBF
:100CD0007CD1C6067AD5D60678D5086848680090D3
:100CE00048694FF00206400640D5E16B086840684D
:100CF0000004000CE8D0A28D8242E5D9E085886925
:100D000020282DD020680C3050E8001F21F480717D
:100D100040E80012002AF5D12068143050E8001F86
:100D200021F0010140E80012002AF5D120681430BA
:100D300050E8001F21F0400140E80012002AF5D1E0
:100D400084F84230256320680C3050E8001F21F001
:100D5000100140E80012002AF5D1E06BFFF70AFA13
:100D60006663A08DE18D401A81B22AE0A08DE18DED
:100D7000401A81B2E08D0028A6D00029A4D02268B4
:100D80000C3252E8000F20F4907042E80007002F68
:100D9000F5D12068143050E8002F22F0010240E81D
:100DA0000027002FF5D184F84230256320680C30ED
:100DB00050E8002F22F0100240E80023002BF5D16C
:100DC00066632046FFF7F8FEF8BDFFE705062BD562
:100DD000150629D594F841002128F5D1A068B0F571
:100DE000805F01D12069B0B1206A411C2162216875
:100DF00000784860E08C401E0004000CE084E3D1E1
:100E00002068C16821F08001C1602068C16841F09C
:100E10004001C160D8E7206A0088C0F3080048603C
:100E2000206A801C2062E5E74006CDD55006CBD570
:100E3000CA68204622F04002CA6084F8413000F0BF
:100E4000E7F8C1E72511000870B5040004D094F854
:100E50004100002510B106E0012070BD84F840502B
:100E6000204600F023F8242084F841002068C1685F
:100E700021F40051C160204600F0E4F920680169C6
:100E800021F4904101612068416921F02A0141610A
:100E90002068C16841F40051C1606564202084F875
:100EA000410084F842006563002070BD30B585B014
:100EB000002400940194029403942A4D03682A4963
:100EC00003222A48AB421ED18B6943F480438B61D5
:100ED0008B6903F4804304938B6943F004038B61B3
:100EE0008969039201F004010491411500911221D6
:100EF00001916946FFF7C0F9002211462520FFF74E
:100F000081FB252029E01A4DAB4228D1CB6943F45F
:100F10000033CB61CB6903F4003304938B6943F056
:100F200004038B618969039201F004010491042197
:100F300000910221019169460546FFF79DF90820BD
:100F4000CDE90004694628460294FFF795F900228E
:100F500011462620FFF756FB2620FFF745FB05B07C
:100F600030BD000000380140001002400008014080
:100F70000044004070472DE9F843044690F84100D2
:100F80001F4616460D46202802D00220BDE8F883F1
:100F90007DB176B100206064212084F84100FFF724
:100FA0005BFAA6848046E684A068B0F5805F02D034
:100FB00003E00120EAE7206910B12E4600250EE08B
:100FC00000260CE08021204600F0B3F9A0B9AEB1B4
:100FD00016F8010B21684860E08C401EE084E08C2C
:100FE00043464FF0000200970028EBD14FF040013C
:100FF000204600F09EF930B10320C7E735F8020B18
:10100000C0F30800E6E7202084F841000020BDE797
:101010007047FEE7094808B5816941F02001816108
:10102000816901F020010091816941F00401816131
:10103000806900F00400009008BD0000001002402C
:101040000C4810B50A4901600B49416000218160DC
:101050000C22C160C0E904128161C161FFF734FA5A
:10106000002803D0BDE81040FFF782B810BD000093
:10107000003801404000002040420F000C4810B5ED
:101080000A4901600B494160002181600C22C16066
:10109000C0E904128161C161FFF7D6FE002803D0C8
:1010A000BDE81040FFF764B810BD000000440040E8
:1010B0008800002040420F00FEE7FEE770477047BF
:1010C000FFF73ABA30B58FB028216846FFF731F8FC
:1010D00014210AA8FFF72DF801210804CDE900101A
:1010E0000024029402250491CDE907504FF4E0104A
:1010F00009906846FFF794FB08B172B6FEE70F202F
:10110000CDE90A054FF48060CDE90C4002210AA820
:101110000E94FFF7A9FA002801D072B6FEE70FB0CF
:1011200030BD704710B5406A0021C185C184FFF70A
:1011300053FD10BD01680C3151E8002F22F490726C
:1011400041E80023002BF5D10168143151E8002F4C
:1011500022F0010241E80023002BF5D1016B0129A7
:1011600009D101680C3151E8002F22F0100241E84A
:101170000023002BF5D1202180F8421000210163CB
:10118000704708B590F84210222901D0022008BD0E
:1011900082684FF480539A4201D1016921B1816A7A
:1011A0009A421BD04AB10AE00268816A5268C2F3CF
:1011B00008020A80816A891C08E0026972B102682B
:1011C000526802F07F020A70816A491C8162C18DF7
:1011D000491E0904090CC18503D01BE0026852684E
:1011E000F1E70168CA6822F02002CA600168CA6893
:1011F00022F48072CA6001684A6922F001024A61E1
:10120000202180F8421000214163026B012A03D0A3
:10121000FFF7B0FE002008BD016301680C3151E802
:10122000002F22F0100241E80023002BF5D10168C5
:101230000A68D20602D50A6849680091818DFFF7D5
:10124000BBFCE7E770B5044600680169E26821F479
:101250004051114301612169A06808436169084355
:101260002168CA6841F20C639A430243CA6020684D
:101270004169A26921F44071114341611E4920680E
:10128000884202D1FFF796FA01E0FFF783FA00EBFC
:10129000C00101EB0012606864218000B2FBF0F332
:1012A000B3FBF1F36FF018067343B2FBF0F5B2FB3A
:1012B000F0F605EB8305322303EB0515B5FBF1F5DD
:1012C000B6FBF1F605F0F00505EB0615B2FBF0F6FE
:1012D000B2FBF0F0B0FBF1F06FF01802504306EBF8
:1012E000800003EB0010B0FBF1F0216800F00F006C
:1012F0002844886070BD000000380140816282850A
:10130000C28500214164222180F84210016921B187
:101310000168CA6842F48072CA6001684A6942F092
:1013200001024A610068C16841F02001C1600020EB
:1013300070472DE9F041984617460E460446069D33
:1013400027E0681C25D02DB1FFF786F8A0EB080038
:10135000A8421ED920680C3050E8001F21F4D0713B
:1013600040E80012002AF5D12068143050E8001F30
:1013700021F0010140E80012002AF5D1202084F874
:10138000410084F84200002084F840000320BDE8BA
:10139000F0812068006836EA000004D00020B842DE
:1013A000CFD00020F3E70120F9E700000148FFF764
:1013B00015BC0000400000200148FFF70FBC0000F2
:1013C00088000020FEE70000014A024900F023B82F
:1013D00039140008140000200907090E002804DB56
:1013E00000F1E02080F80014704700F00F0000F1D9
:1013F000E02080F8141D704702E008C8121F08C1E1
:10140000002AFAD170477047002001E001C1121F85
:10141000002AFBD170472DE9F04116460F460446DD
:10142000002503E03946B047641C6D1C2078002875
:10143000F8D12846BDE8F08113B54FF6FF730122BD
:1014400069460248FFF797FD00981CBD8800002000
:1014500010B500231A4604E0845C521C2344DBB21E
:10146000D2B28A42F8D3D843C0B210BDFFF76CF8AD
:10147000FFF728FEFFF7CEFDFFF7E2FDFFF7FEFDC9
:10148000954C4FF47A7540F2DC564FF46167924AFE
:101490009249012000F096F99148FEF7FCFF0A23DB
:1014A00022788E498E48FFF766FD8EA0FFF78CFFED
:1014B0002846FEF7CFFE884B884A0021012000F025
:1014C000B1F98748FEF7E7FF0A2322788349844869
:1014D000FFF751FD8248FEF7C5FF804932221431E3
:1014E0007F48FFF741FB0A20FEF7B4FE7B4814302B
:1014F00000F0A4F92846FEF7ADFE0121764B774AAD
:10150000084600F06AF97648FEF7C5FF0A232278FC
:1015100072497348FFF72FFD7148FEF7A3FF6F492B
:10152000322214316E48FFF71FFB0A20FEF792FEAD
:101530006A48143000F05EF92846FEF78BFE012160
:10154000654B664A084600F06DF96548FEF7A3FF53
:101550000A23227861496248FFF70DFD6048FEF7D3
:1015600081FF5E49322214315D48FFF7FDFA0A20FF
:10157000FEF770FE5948143000F060F92846FEF777
:1015800069FE554B554A3146012000F0B7F95448E1
:10159000FEF781FF0A23227850495148FFF7EBFC00
:1015A0004F48FEF75FFF4D49322214314C48FFF798
:1015B000DBFA0A20FEF74EFE4848143000F0B0F97E
:1015C0002846FEF747FE444B444A3946012000F0C6
:1015D000BFF94348FEF75FFF0A2322783F4940489E
:1015E000FFF7C9FC3E48FEF73DFF3C49322214316B
:1015F0003B48FFF7B9FA0A20FEF72CFE37481430B3
:1016000000F0B8F92846FEF725FE334B334A0A218D
:10161000012000F02BF93248FEF73DFF0A23227823
:101620002E492F48FFF7A7FC2D48FEF71BFF2B493B
:10163000322214312A48FFF797FA0A20FEF70AFEF1
:101640002648143000F01EF92846FEF703FE01215B
:10165000214B224A084600F02DF92148FEF71BFFD6
:101660000A2322781D491E48FFF785FC1C48FEF717
:10167000F9FE1A49322214311948FFF775FA0A2087
:10168000FEF7E8FD1548143000F020F92846FEF773
:10169000E1FD114B114A0021012000F02FF9104803
:1016A000FEF7F9FE0A2322780C490D48FFF763FC88
:1016B0000B48FEF7D7FE0949322214310848FFF7DC
:1016C00053FA0A20FEF7C6FD0448143000F028F94A
:1016D0002846FEF7BFFDDAE60000002018000020D3
:1016E0004000002054686520736572766F20706139
:1016F00072616D65746572207265736574000000B7
:10170000F0B54FF0FF0CDDE90646059F84F800C0F8
:10171000054684F801C0A570002004254FF0020C96
:1017200010293FD008DC01290ED0022911D003294D
:1017300014D0062906D135E0152933D0642931D0DB
:1017400083291AD00720F0BD84F803C02171052534
:101750002EE0E57021716271A37128E0DD1CE57057
:1017600021716271062505E0395C61556D1C401CD4
:10177000EDB2C0B29842F7D31AE07A780525521C30
:101780005A43121DE2702171991C05E03A5C6255C2
:101790006D1C401CEDB2C0B27A7803FB021282428B
:1017A000F4D805E0E5702171DF206071A071072594
:1017B000A81EC1B2A01CFFF74BFE60556D1C357012
:1017C0000020F0BD0EB50023CDE9003102921A468B
:1017D0001021FFF795FF00200EBD0FB582B0232129
:1017E000CDE9002303AB012200F072F906B000201E
:1017F00000BD000008B500210091694600F0D2F854
:10180000002803D102A0FFF7DFFD002008BD000083
:10181000536574207375636365737366756C210D0E
:101820000A0000000FB582B03021CDE9002303ABE0
:10183000012200F04DF906B0002000BD08B50021DE
:101840000091694600F0AEF8002803D102A0FFF72E
:10185000BBFD002008BD00005365742073756363F1
:1018600065737366756C210D0A0000000FB582B0B8
:101870003921CDE9002303AB012200F029F906B09C
:10188000002000BD08B500210091694600F08AF8EB
:10189000002803D102A0FFF797FD002008BD00003B
:1018A000536574207375636365737366756C210D7E
:1018B0000A0000000FB582B03A21CDE9002303AB46
:1018C000012200F005F906B0002000BD08B5002196
:1018D0000091694600F066F8002803D102A0FFF7E6
:1018E00073FD002008BD00005365742073756363A9
:1018F00065737366756C210D0A0000001EB5002427
:1019000002948DF80810090ACDE900238DF809101A
:1019100002AB0222352100F0DBF800201EBD0000E2
:1019200008B500210091694600F03CF8002803D179
:1019300002A0FFF749FD002008BD00005365742098
:101940007375636365737366756C210D0A0000001F
:101950001EB5002402948DF80810090ACDE9002371
:101960008DF8091002AB0222372100F0B1F80020F7
:101970001EBD000008B500210091694600F012F874
:10198000002803D102A0FFF71FFD002008BD0000C2
:10199000536574207375636365737366756C210D8D
:1019A0000A0000002DE9F041C678054604790F468B
:1019B000701CC1B2A81CFFF74BFD2978FF2906D186
:1019C0006978FF2903D1A919C978814205D019A0E6
:1019D000FFF7FAFC8020BDE8F081002C24D0E0075E
:1019E00002D01FA0FFF7F0FCA00702D520A0FFF750
:1019F000EBFC600702D522A0FFF7E6FC200702D52A
:101A000023A0FFF7E1FCE00602D525A0FFF7DCFCF0
:101A1000A00602D526A0FFF7D7FC600602D528A0B5
:101A2000FFF7D2FC2046D6E7022E01D96D1D3D609E
:101A30000020D0E754686973206973206E6F7420AA
:101A40006120636F6D706C65746520726573706F73
:101A50006E7365207061636B616765210D0A00001C
:101A6000E794B5E58E8BE68AA5E994990D0A000006
:101A7000E8A792E5BAA6E68AA5E994990D0A0000BE
:101A8000E8BF87E783ADE68AA5E994990D0A0000CF
:101A9000E88C83E59BB4E68AA5E994990D0A0000D9
:101AA000E6A0A1E9AA8CE68AA5E994990D0A0000AE
:101AB000E5A0B5E8BDACE68AA5E994990D0A000059
:101AC000E8A7A3E69E90E68AA5E994990D0A00008E
:101AD0003EB5DDE906458DE8380013460A46032188
:101AE000FFF70EFE00203EBD0102020304050607BB
:101AF00008090A0B0C0D0E0F10100000000000006A
:101B000000000102030406070809000000000102AA
:101B100003040000341B000800000020180000002F
:101B2000F81300084C1B000818000020B80400003F
:101B30000814000800000000010000001000000070
:0C1B4000000000000024F4000000000081
:04000005080000ED02
:00000001FF
