:080000000202C790007D412EB1
:10000B00020E8590007D512E900083E0FF04F08F4F
:05001B00827583002244
:10002300020EB7E709F608DFFA8046E709F208DFB0
:10003300FA803E88828C83E709F0A3DFFA8032E3FB
:1000430009F608DFFA8078E309F208DFFA8070889E
:10005300828C83E309F0A3DFFA806489828A83E0D8
:10006300A3F608DFFA805889828A83E0A3F208DFC7
:10007300FA804C80D280FA80C680D4806980F28076
:1000830033801080A680EA809A80A880DA80E2809C
:10009300CA803389828A83ECFAE493A3C8C582C8F1
:1000A300CCC583CCF0A3C8C582C8CCC583CCDFE95B
:1000B300DEE7800D89828A83E493A3F608DFF9ECF7
:1000C300FAA9F0EDFB2289828A83ECFAE0A3C8C582
:1000D30082C8CCC583CCF0A3C8C582C8CCC583CCA9
:1000E300DFEADEE880DB89828A83E493A3F208DF18
:1000F300F980CC88F0EF60010E4E60C388F0ED24E8
:1001030002B4040050B9F582EB2402B4040050AFEA
:10011300232345822390007673BB010689828A8359
:10012300E0225002E722BBFE02E32289828A83E4B3
:100133009322BB010CE58229F582E5833AF583E03E
:10014300225006E92582F8E622BBFE06E92582F85D
:10015300E222E58229F582E5833AF583E49322BB23
:10016300010689828A83F0225002F722BBFE01F343
:1001730022F8BB010DE58229F582E5833AF583E890
:10018300F0225006E92582C8F622BBFE05E9258246
:10019300C8F222C5F0F8A3E028F0C5F0F8E582150F
:1001A3008270021583E038F022BB010A89828A83B8
:1001B300E0F5F0A3E022500687F009E71922BBFE21
:1001C30007E3F5F009E3192289828A83E493F5F0C2
:1001D30074019322BB0110E58229F582E5833AF588
:1001E30083E0F5F0A3E0225009E92582F886F008C0
:1001F300E622BBFE0AE92582F8E2F5F008E222E5F1
:10020300832AF583E993F5F0A3E99322BB010A89D5
:10021300828A83F0E5F0A3F0225006F709A7F019CC
:1002230022BBFE06F3E5F009F31922E0FBA3E0FA93
:10023300A3E0F922EBF0A3EAF0A3E9F022BB011A51
:1002430089828A83D0F0D0E0F8D0E0F9D0E0FAD008
:10025300E0FBE8C0E0C0F00202375016E9F8D083B3
:10026300D082D0E0F9D0E0FAD0E0FBC082C08302B4
:1002730002B5BBFE16E9F8D083D082D0E0F9D0E016
:10028300FAD0E0FBC082C0830202BE22D083D082B8
:10029300F8E4937012740193700DA3A393F874019F
:1002A30093F5828883E4737402936860EFA3A3A336
:1002B30080DFEBF608EAF608E9F622EBF208EAF249
:1002C30008E9F222787FE4F6D8FD75810F02030E68
:1002D300020841E493A3F8E493A34003F68001F2F8
:1002E30008DFF48029E493A3F85407240CC8C3332C
:1002F300C4540F4420C8834004F456800146F6DFFB
:10030300E4800B0102040810204080900353E47E34
:10031300019360BCA3FF543F30E509541FFEE493EF
:10032300A360010ECF54C025E060A840B8E493A3B6
:10033300FAE493A3F8E493A3C8C582C8CAC583CAE1
:10034300F0A3C8C582C8CAC583CADFE9DEE780BE99
:1003530054008900000000000000000000000000BD
:100363000000000000000041008800005468697329
:10037300206973206E6F74206120636F6D706C65EC
:10038300746520726573706F6E7365207061636B43
:10039300616765210D0A00E794B5E58E8BE68AA5B2
:1003A300E994990D0A00E8A792E5BAA6E68AA5E9B9
:1003B30094990D0A00E8BF87E783ADE68AA5E9941F
:1003C300990D0A00E88C83E59BB4E68AA5E9949924
:1003D3000D0A00E6A0A1E9AA8CE68AA5E994990D85
:1003E3000A00E5A0B5E8BDACE68AA5E994990D0A33
:1003F30000E8A7A3E69E90E68AA5E994990D0A0072
:10040300536574207375636365737366756C210D2F
:100413000A000000000000000000000000000000CF
:1004230000000000000000000000000000000001C8
:1004330000000002000000010E1000020E10000078
:1004430000010096000200960000000100960002E1
:1004530000960000000100000002000000000001FF
:100463000BB801F400020BB801F400000000000017
:1004730000009000855137E4FFFEEEC39D501190BC
:100483000085512E8E8275830031352FFF0E80EA51
:10049300EFF4FF22900077EDF0AE03E4900083F0D9
:1004A300A3F01103D193D18CD18CB1E9ED518F0419
:1004B300CE0104D90204FC030591060591100591B0
:1004C30015059164053783000005AC110E740231E4
:1004D300749000778012110E74043174D17DB1E9E8
:1004E3001113EE3174900079E0FF900083E0FE0475
:1004F300F08E82758300EFA1A8900079E02403FFBA
:100503001103D182B1E9D17DB1E9AF06B1E0E49045
:100513000084F0900079E0FF900084E0FEC39F40E8
:1005230002A1AF90007A512E8E82B1D5900084E063
:1005330004F080DF90007AD19D04FF900079E0FE03
:10054300EF8EF0A42404B1DA900077E0FFB1E0E489
:10055300900084F090007AF1C4900079E0FD8FF070
:10056300F1BB7C00EF2DFFEC3EFE900084E0C39FC7
:10057300EE6480F8748098503390007A512E900086
:1005830084E0F582B1D5900084E004F080C6110EBA
:1005930074043174900077E0FFB1E0111374DF311C
:1005A30074111374DF317480037F07221103D15256
:1005B300900083E024FEFD91751103900083E0FE1B
:1005C300F582B1E9EE04FF900080512EEF31627F96
:1005D30000227583003135FF90007D512E900083FA
:1005E300E0FE04F08E82758300EF21749000615168
:1005F300379000033135FC9000043135900067F0EB
:10060300D152EC04FD9175900061F1B7B4FF13D1A1
:100613009FB4FF0EECF582758300A3A3A331356F5E
:1006230060037F8022900067E0FF600122ECD39497
:10063300024019900061512EE92405F9E43AFAC009
:1006430003C002C001900064512E51407F0022E993
:100653002402F9E43AFA22D1A46001227F0022D1D4
:100663005A7FE87E03120ADFF1CD7B017A00791409
:1006730090006051377A00790022900077E0FF9074
:100683000083E0FD04F08D822275830074FF3174D2
:10069300900083E0FC04F08C8222512E9000012113
:1006A3003590005B51377B007A00790090005E51F2
:1006B300370B7A00795E900064513790005B512EBE
:1006C300B1EFEF22D1A46001227F0022D1A4600107
:1006D300227F0022D1A46001227F0022D1A46001E5
:1006E300227F0022D1A46001227F0022D1A46001D5
:1006F300227F0022D1A46001227F0022D1A46001C5
:10070300227F0022D1A46001227F0022D1A46001B4
:10071300227F0022D1A46001227F0022D1A46001A4
:10072300227F0022D1A46001227F0022D1A4600194
:10073300227F0022D1A46001227F0022D1A4600184
:10074300227F0022D1A46001227F0022D1A4600174
:10075300227F0022D1A46001227F0022D1A4600164
:10076300227F0022D1A46001227F0022D1A4600154
:10077300227F0022D1A46001227F0022D1A4600144
:10078300227F0022D1A46001227F0022D1A4600134
:10079300227F0022D1A46001227F0022D1A4600124
:1007A300227F0022D1A46001227F0022D1A4600114
:1007B300227F0022512E211CA42402FFE435F0FEE7
:1007C30022512E9000013135FF2243892075984034
:1007D300758780758DFF758BFFC2ACD2AFD28E2229
:1007E300D15A7FE87E03120ADFF1CD7B017A0079CB
:1007F3001490006122AE03AB05C003900079EEF0C4
:1008030090006D12022E90007A1202379000701140
:100813002C9000731123D0037D031204977F0022D1
:1008230012022E90008002023712022E90007D02E7
:10083300023771C37B017D091207F87F0022E49020
:100843000014F0A3F0A3F078177C007D017BFF7AFE
:10085300047931FE7F081200F6781F7C007D017B4E
:10086300FF7A04793971BC78297C007D017BFF7A9A
:1008730004794371BC78337C007D017BFF7A047972
:100883004D71BC783D7C007D017BFF7A0479577103
:10089300BC78477C007D017BFF7A0479617E007F11
:1008A300141200F6D17512066B7D017F01D10F7111
:1008B300861207671206647DFA7F0111357186126D
:1008C30006C71206647D027F01B19771861206CFB7
:1008D3001206647D037F01B1A371861206D7120746
:1008E300E5120676E4FDFC7F0171F071861206DFE6
:1008F3001207E51206767DB87C0B7F0191047186A1
:100903001206E71206647D647F01B1AF7186120699
:10091300EF1206647D5A7F01B1BB71861206F7128E
:1009230006647D217F01B1C771861206FF1207E5B8
:100933001206767DE87C037F019118718612070702
:100943001207E51206767D907C017F01912C71865A
:1009530012070F1207E51206767DE87C037F0191EB
:100963005871861207171206647D017F01B1D37196
:100973008612071F1206647D017F01B1DF718612A3
:1009830007271206647D017F01B1EB718612072FE1
:100993001207E51206767D707C177F0191CE718672
:1009A3001207371207E51206767D017C007F01915D
:1009B300E2718612073F1207E51206767D977C00E7
:1009C3007F0191F671861207471206647D247F0129
:1009D300B1F7718612074F1206647D247F01D1039C
:1009E30071861207571206647D017F01D11B718640
:1009F30012076F120664E4FD71821206627D0371B1
:100A0300431207E31206767DE87C037F0191A2710E
:100A1300861207777FB87E0B120668E4FD71821297
:100A230006627D0271431207E31206767D187CFC91
:100A33007F0191B8718612077F7FB87E0B1206681B
:100A4300E4FD71821206627D0171431207E312060F
:100A5300767D107C0E7F01B11E718612078F120600
:100A6300647D967F01D12771861207971206647DF4
:100A7300967F01D133718612079F1207E51206761E
:100A8300E4FDFC7F01B10A7186120787120664E454
:100A9300FD7182120662E4FD7143120662E4FD7F7A
:100AA30001D13F71861207A751DB1207CD7B017A73
:100AB3000079009000601202377A00791490006385
:100AC3001202377BF47A017DB87C0B7F01B132715E
:100AD300861207AF51DB01A97FE87E03EF25E0FF14
:100AE300EE3390009DF0A3EFF090009DE07002A321
:100AF300E070F62290005B12023790005EECF0A3E8
:100B0300EDF0E4FDFCD390005FE09D90005EE09C7F
:100B1300401790005B12022E8D828C83120135FFE9
:100B2300D1640DBD00010C80DC22438920759850EF
:100B3300758780758DFF758BFFD2ACD2AFD28E22B5
:100B43007F0171B07B017A007900900014E0FD7C95
:100B53000051F7712D7F0A7E0051DF7B017A007906
:100B63008912075F7FE87E0351DF1207CD7B017A8D
:100B73000079149000601202377A0079007D017FBA
:100B83000171A47B017A007900900014E0FD7C00E0
:100B930051F7712D7F0A7E0051DF7B017A0079893D
:100BA3002271C37B017D301207F87F002271C37B62
:100BB300017D231207F87F00227E007F0A0200F6E0
:100BC30090005CEDF0A31202377B017A00795C9010
:100BD300006D12023790005D12022E900070120217
:100BE3003790006012022E90007302023791407A10
:100BF300047915916C71E77B027D0B1207F87F0076
:100C03002291407A047917916C71E77B027D0D1272
:100C130007F87F002291407A047919916C71E77B80
:100C2300027D121207F87F002291407A04791B910A
:100C33006C71E77B027D141207F87F002290005B42
:100C4300EFF0A3ECF0A3EDF0A312023778647C007D
:100C53007D017BFF2291407A04791D916C71E77BC2
:100C6300027D161207F87F00227E007F021200F633
:100C730090005CE0FCA3E0900064F0ECA3F0900033
:100C83005BE0FF7B017A00796490006D120237907C
:100C9300005E12022E9000701202379000612291C2
:100CA300407A047925D14B917F71E77B027D311224
:100CB30007F87F002291407A047927D14B917F7105
:100CC300E77B027D331207F87F002291407A047993
:100CD3001F916C71E77B027D1B1207F87F00229145
:100CE300407A047921916C71E77B027D1D1207F82C
:100CF3007F002291407A047923916C71E77B027D16
:100D03001F1207F87F002291407A047929916C71B0
:100D1300E77B027D351207F87F002291407A047940
:100D23002B916C71E77B027D371207F87F002290CD
:100D3300005BEFF0A3ECF0A3EDF0A3EAF0A3EBF07C
:100D430078667C007D017BFF7A04792D7E007F0429
:100D53001200F690005CE0FCA3E0900066F0ECA3C8
:100D6300F090005EE0FCA3E0900068F0ECA3F0904C
:100D7300005BE0FF7B017A00796690006D12023719
:100D8300900060D16C90006371E77B047D3C120797
:100D9300F87F002271C37B017D0A1207F87F0022CE
:100DA30071C37B017D081207F87F002271C37B01A9
:100DB3007D0F1207F87F002271C37B017D1012079C
:100DC300F87F002271C37B017D111207F87F002297
:100DD30071C37B017D181207F87F002271C37B0169
:100DE3007D191207F87F002271C37B017D1A120758
:100DF300F87F002271C37B017D211207F87F002257
:100E030071C37B017D221207F87F002271C37B012E
:100E13007D2E1207F87F002271C37B017D2F1207FD
:100E2300F87F002271C37B017D391207F87F00220E
:100E330071C37B017D3A1207F87F002271C37B01E6
:100E43007D3B1207F87F00227E007F021200F6909E
:100E5300005CE0FCA3E0900064F0ECFF3395E0EF6E
:100E6300228F993099FDC2992212022E90007002AE
:100E73000237438901758CFC758A67D2A9D2AFD238
:100E83008C22C0E0C0F0C083C082C0D075D008758A
:100E93008CFC758A6790009DE07002A3E0600A9065
:100EA300009D74FFF5F0120196D0D0D082D083D08C
:100EB300F0D0E032C0E0C083C082C0D075D000C0A3
:100EC30007309816C298900088E0FF04F074892FC9
:100ED300F582E43400F583E599F0D007D0D0D082D1
:050EE300D083D0E032D5
:00000001FF
